:1020000000800020C5340000AD340000AD34000075
:1020100000000000000000000000000000000000C0
:10202000000000000000000000000000AD340000CF
:102030000000000000000000AD3400001935000071
:10204000AD340000AD340000AD340000AD3400000C
:10205000AD340000AD340000292F0000B134000081
:10206000AD340000F9330000AD340000AD340000A1
:10207000AD340000AD34000009340000AD34000080
:10208000AD340000AD340000AD340000AD340000CC
:1020900000000000AD340000AD340000AD3400009D
:1020A000AD340000AD340000AD340000AD340000AC
:1020B0000000000010B5064C2378002B07D1054B1B
:1020C000002B02D0044800E000BF0123237010BDA4
:1020D000C000002000000000FC760000044B10B59A
:1020E000002B03D00349044800E000BF10BDC046E8
:1020F00000000000C4000020FC76000013B5074C6F
:10210000C0B2D2B2CBB2009200210200200000F097
:1021100086FE200000F0D2FD13BDC046F000002076
:10212000F8B50024134B0121E05801F0BBFB124B22
:102130000021E058043401F0B5FB1C2CF2D100263C
:1021400001271A3C0025BE1B0A4B3100585901F0EB
:10215000F5FB094B585901F01DFC864208D10435A6
:102160001C2DF1D1012C01D12000F8BD3C00E9E784
:102170000020FAE7BC6B0000D86B000010B50A2005
:1021800000F0AEF900F0B2F9040001280AD00028EE
:1021900003D002280CD0002009E00649064801F0CF
:1021A000DFFCF8E70549044801F0DAFC200010BD27
:1021B0000349F3E7AC6B000004080020B46B000097
:1021C000B76B000070B50126144D154C2B683342D7
:1021D00003D101F0AFF92E60206001F0ABF9236864
:1021E000C01AC7280FD901F0A5F9206001200D4BB6
:1021F0001A68801A18600C4B1968FF2904D1002254
:102200001000FFF77BFF70BD002804D0074B1A6851
:10221000074B1868F5E702000100F2E7DC00002038
:10222000EC000020E80000202C0100202801002004
:1022300030010020F8B5164CFF27200000F018FDF3
:102240002021200000F058FD200000F037FD012182
:102250000D2001F027FB02210B2001F023FB0121BF
:102260000D2001F06BFB00230A4D0B4C0B4E2B6035
:1022700027603360FFF754FF002801D137602060EA
:10228000FFF77CFF002802D1FF2320602B60F8BD00
:10229000F0000020300100202C0100202801002047
:1022A00010B5FFF78FFF0B2001F074FB0121091A15
:1022B0000D2001F043FB10BD13B50021094800912A
:1022C0000B000A0001F008FC074C52230C220121EC
:1022D000200000F00DFC054A0549200003F03EFBFC
:1022E00013BDC046E0000020F000002000000020E8
:1022F000132B0000F8B506AC277807AC267808AC9D
:1023000025780024C460447404740475A14205D186
:10231000064B074A2021074803F0BEFB4771C671F0
:102320000572016002718371F8BDC046F46B000054
:10233000696C0000056C0000037D002B04D143751F
:10234000837583610133037570477FB5C36802AD40
:1023500004000E0002916A608B4203D1028AAB88AE
:102360009A4218D02000062229000C3003F012FCFB
:10237000206801F03AFD6B79227AE17900932068B8
:10238000002301F0D3FD20682979320001F0FEFC22
:10239000206801F020FD7FBD70B518260400FFF70E
:1023A000CBFF3300082120790D4D4343EB185956DC
:1023B00001F008FB33000821A0794343EB1859567C
:1023C00001F000FB082160794643AD19695601F020
:1023D000F9FA044B200006CBFFF7B7FF70BDC046EB
:1023E000E47000005001002007B5437D0091019288
:1023F000002B07D09A070AD5EFF310835A425341B6
:10240000837572B60099019AFFF79FFF07BDDB073E
:10241000F8D58369014A9BB29360F3E70018004046
:10242000437D002B05D09A0704D5837D002B00D077
:1024300062B67047DB07FCD58369024A9BB2D36062
:10244000F7E7C0460018004010B5006801F0D6FC60
:1024500010BD70B506000C008D18AC4206D0217876
:102460003000FFF7F1FF20700134F6E770BD000087
:102470000A4B0B4A0B491A6000225A711A710A4B17
:1024800019600A49DA6099801821997117395A74CC
:102490001A741A75D9711A727047C046500100201B
:1024A00000093D00F4070020340100201617000049
:1024B00007B50021034800910B000A0001F00CFB56
:1024C00007BDC0465801002007B500210348009110
:1024D0000B000A0001F000FB07BDC04660010020B0
:1024E000014B18707047C0460400002010B500F082
:1024F000B7FA0300012803D0023843425841430091
:10250000180010BD07B50021044800910B000A0017
:1025100001F0E2FA024801F0D7FA07BD6801002095
:102520007001002007B50021034800910B000A004C
:1025300001F0D2FA07BDC0467801002007B500219E
:10254000034800910B000A0001F0C6FA07BDC0461F
:102550008001002007B50021034800910B000A000C
:1025600001F0BAFA07BDC0468801002007B5074B45
:1025700000021B781B02C9186B460818D91D0A7087
:1025800080B2012200F024F8C0B20EBDA4010020E8
:1025900007B50021034800910B000A0001F09CFAE6
:1025A00007BDC04690010020024B034A1B68126819
:1025B0005A617047A0010020A8010020024B034A85
:1025C0001B6812689A617047A0010020A8010020D2
:1025D000F0B54D4B85B01B7804000D001600332B71
:1025E0001ED183189BB20193019BA34277D0FFF7C2
:1025F000DBFF464FF0213800FFF726FF210A3800A5
:10260000FFF722FFE1B23800FFF71EFF01342978FF
:102610003800FFF719FFA4B2FFF7D0FF0135E3E759
:10262000C7B2342B1CD1FFF7BFFF241202AB1C70C2
:102630005F708023320A5B42134302AA9370130037
:10264000324CD670190004222000FFF702FFAF19A8
:10265000AF4242D029782000FFF7F6FE0135F7E7B8
:10266000FFF7A2FFFF2C06D8002302AA1370042351
:10267000577093700DE023B2002B15DB002302AAE4
:1026800013701F23E4109C4323000C241C43577039
:102690009470052E26D80023B34219DA02A95A18DD
:1026A000E95C0133D170F7E71F21A3118B4318496F
:1026B000220A5BB28C4206D802A90A7014224F701B
:1026C00013430A00D5E702A90A704F701C22F7E7EE
:1026D000F21C02A90D48FFF7BCFEFFF76FFF3000A8
:1026E00005B0F0BD094F032202A93800741EFFF7A0
:1026F000B0FEA4B26B1CE418297838000135FFF74E
:10270000A3FEA542F8D1E8E7AC0100203401002087
:10271000FFBF000007B56B46D971073301221900CE
:10272000FFF756FFC0B20EBD10B501000020FFF745
:10273000F1FF10BDF0B53C4B85B01B7804000E00D6
:102740001700332B1FD183189BB20193019BA34227
:102750003AD0FFF729FF354D0F212800FFF774FE0F
:10276000210A2800FFF770FEE1B22800FFF76CFE97
:1027700000212800FFF768FE01343070A4B2FFF793
:102780001DFF0136E2E7C2B2019203AD342B1ED128
:10279000FFF70AFF6B4604221B7924126B707B043F
:1027A0005B0E2C70AB70EF7029002048FFF751FED4
:1027B0003A000021300003F0F6F93A0031001B48DE
:1027C000FFF747FEFFF7FAFE380005B0F0BDFFF750
:1027D000EBFEFF2C06D86A46002312792B706A7034
:1027E000AB700EE023B2002B0DDB00232B706B4689
:1027F0001B79E4106B701F239C43230008241C43A7
:10280000AC700322D0E7220A1F212A706A46A31166
:102810008B43127906496A705BB210228C4200D950
:1028200018221343DCE7C046AC010020340100202D
:10283000FFBF000013B56B46DC1D01222100FFF72E
:1028400079FF207816BD10B50020FFF7F3FF10BD0B
:1028500010B58020FFF768FF1424FFF7F4FF00286D
:1028600008D0013C0120A4B200F09AFE002CF4D163
:10287000200010BD0120FCE73322104B10B51A7068
:10288000FFF7E6FF002801D1002010BD1020FFF760
:102890004BFFFFF7D8FF1028F6D10230FFF744FFB7
:1028A000FFF7D1FF1228EFD10020FFF73DFFFFF720
:1028B000CAFF43425841C0B2E7E7C046AC0100201E
:1028C0003422134B10B51A70FFF7C2FF002801D154
:1028D000002010BD0820FFF727FFFFF7B4FF0828EE
:1028E000F6D10830FFF720FFFFF7ADFF1028EFD13A
:1028F0000020FFF719FFFFF7A6FF0028E8D11F30DF
:10290000FFF798FF033843425841C0B2E1E7C046A1
:10291000AC0100203722134B10B51A70FFF798FF57
:10292000002801D1002010BD0820FFF7FDFEFFF7B1
:102930008AFF0828F6D10830FFF7F6FEFFF783FF7D
:102940001028EFD10020FFF7EFFEFFF77CFF0028F3
:10295000E8D13930FFF76EFF043843425841C0B226
:10296000E1E7C046AC010020F7B5334E01273478CB
:10297000002C5FD18C20800000F012FE2F4D28002B
:10298000FFF70AFD18212E4B2E4A18782E4B414393
:10299000CB56DB019B182D4A13602B4B5A185368FA
:1029A0003A009A402A4B39001A6000F07BFFFFF78B
:1029B00005FE6B465C711C712649019A2800FFF7E1
:1029C00013FDFFF77DFF002817D04022224BFF198F
:1029D0001A703A001E212000FFF7C8FD20000134C4
:1029E0003A001F21E4B2FFF7C1FD082CF1D1012705
:1029F0002800FFF715FD37701CE0FFF78BFF00285C
:102A000003D01022144B1A70F1E7FFF735FF071EB1
:102A10000BD00422104B55211B201A70FFF77AFEB1
:102A200055211A20FFF776FEE1E70C4B18702800BD
:102A3000FFF7F6FC3800FEBDAD0100203401002098
:102A40000400002000440041E4700000A0010020C8
:102A5000A801002000127A00A4010020AC0100208F
:102A600037B5FFF781FF0023984205D0174A127847
:102A7000342A03D0372A15D018003EBD6A46144CBC
:102A8000537113711349019A2000FFF7ADFC3520F3
:102A9000FFF7D0FE05002000FFF7C2FCAB0613D500
:102AA0000123E9E76A460A4C537113710949019AF7
:102AB0002000FFF799FC2E20FFF7BCFE0500200048
:102AC000FFF7AEFCEB07EBD40223D5E7AC01002007
:102AD0003401002000127A0007B50021034800915C
:102AE0000B000A0000F0F8FF07BDC0469801002067
:102AF00010B5040092B200F07CF92000183000F00C
:102B0000DFF90023E36223630133FF332000A38650
:102B100010BD10B50400183000F04CFBE06A00282E
:102B200001D0FFF77DFC206B002801D003F028F8CE
:102B3000200000F0E4F8200010BD0000F0B58FB0D8
:102B40000A9314AB1D7815AB1F7816AB1B78089150
:102B50005BB209920B930622835E04009D4203D070
:102B6000002528000FB0F0BD00F0D7F8227CE37CF0
:102B70009B1A5A1E934162880333534318225343CE
:102B8000DB085A331800079302F0F0FF2063002897
:102B9000E6D00023E3620622A35E172B02D10127B1
:102BA000314BE362E36A002B0DD11C2002F0CEFE14
:102BB000012306000293019700952B002A00089933
:102BC000FFF798FBE662E06A002846D02700FFF78F
:102BD000E3FB18370B99280000F0F4FE0A9938003F
:102BE00000F004FB0221380000F024FB380000F064
:102BF000BFF9061E2BD10125099A0490039002907B
:102C0000009028320195079B216B380000F036FBBD
:102C1000002819D02900380000F0D4FB079A3100B1
:102C2000206B02F0C0FF0CAB5E711E71E06A0F49B1
:102C30000D9AFFF7D9FB380000F074FA002800D194
:102C40008FE7E06AFFF7ECFB380000F02BFA064B49
:102C5000E26A9A4201D10023E3620025206B02F070
:102C60008FFF25637DE7C04634010020009F2400CC
:102C700030B50622835E85B00C2B19D0052B19D0F8
:102C80000022172B11D1153B0C210B2559430A4C5F
:102C900062185557137A0295957A09590195557A14
:102CA00052680095FFF74AFF0200100005B030BDE2
:102CB0000023E9E70123E7E7C0700000F0B5818851
:102CC000C468026B0A4E0B4D013989B2B1420DD076
:102CD0002778838E01347B431B129B005B591F0CAA
:102CE00017701F0A577093700332EDE7F0BDC046AE
:102CF000FFFF0000C06C000001318186704710B5F5
:102D00000400C06802F03CFF0623E05E002802DBFE
:102D1000002100F0C7FD200010BD10B504000623FF
:102D2000C05E002807DB012100F0BCFD0623E05E49
:102D3000002100F003FE0123637010BD70B5050093
:102D4000C0680E0002F01CFF2B7CEC7CE41A631EB2
:102D50009C4103347443A4B2AC80200002F006FF0F
:102D6000E860002805D02200002102F01CFF6E80E0
:102D700070BDA8806880FBE70322F8B58B110D11A8
:102D80008E101640134015400A4046748274002687
:102D9000FF228A427641C268C47C077CC3740574F2
:102DA0000670002A0AD0E21B5B1B51424A4159427D
:102DB0004B419A4202D04188FFF7C0FFF8BD70B581
:102DC000437804000D00002B06D00623C05E0028C7
:102DD00002DB002100F066FD6378E580002B07D060
:102DE0000121280000F05EFD0021280000F0A6FD72
:102DF00070BD70B51500002204000E004270027212
:102E0000C26042611900FFF7B7FF31002000FFF7F1
:102E100095FF29002000FFF7D2FF200070BDF0B51C
:102E200005AC257844888C4216D9047A002C05D04C
:102E3000624363436543120A1B0A2D0AC47C077C64
:102E4000C668A74209D1032461437118047C0A555E
:102E5000427C8B54837CCD54F0BD890071180026D0
:102E60000E55F3E7094B1868002809D1EFF31082DB
:102E70000749002A08D172B6BFF35F8F01320A708A
:102E80001A6801321A6070470870F9E738030020A9
:102E900034030020084B1A68002A0CD01A68013A43
:102EA0001A601B68002B06D1044B1B78002B02D044
:102EB000BFF35F8F62B670473803002034030020F1
:102EC000FF23002110B504000370FC3B41708170AA
:102ED000C170017143710C22083002F064FE2000C1
:102EE00010BD000001220B0010B5134008D00D4B9F
:102EF0001A70042343708368002B00D0984710BDDC
:102F00000222114204D007490A704370C368F3E7F4
:102F100004231942F3D0034A137003334370036947
:102F2000EAE7C0464E48004110B5FFF79BFF0C4B47
:102F30001B8C1B071B0F0B2B0FD80A4A99008858B4
:102F400000280AD00F2408490A78A24313430B70C3
:102F5000064B1978C9B2FFF7C5FFFFF79BFF10BDFD
:102F6000004800413C0300203F4800414E480041DA
:102F7000F8B500230278050018000B2A77D93C4EDB
:102F80002B702B780B2B07D801229A403168114205
:102F900004D001332B70F4E7012068E0FFF762FFF3
:102FA0003768344C002F2BD12022334B33485969DA
:102FB0000A435A611022D9690A43DA61022223883E
:102FC0003900934323802388013A134323802C4BF9
:102FD0006063BF32A36302F0E6FDC02239002848D7
:102FE00002F0E1FD4022C120264B80002380264BC9
:102FF00026491A601A581140C02212040A431A5076
:1030000001231A00297830688A40024332600F2673
:103010001F4A880085501F4831400278B2430A4356
:10302000027002201C4A11788143117011781943F3
:103030001170297822698B409A43226160223F21D6
:10304000636C934363642A79636C0A4013491202E8
:103050000B400321134363646A79636C0A4010498F
:1030600092050B4013436364FFF714FF0020F8BD83
:10307000300300200048004100040040700200209E
:10308000B0010020020F000000E100E0FFFF00FFA0
:103090003C0300203F48004140480041FFC0FFFF83
:1030A000FFFF3FFF70B50500FFF7DCFE6B785BB2FA
:1030B0001C00062B27D02B7802240B2B23D80122AF
:1030C0009A40134B196811421DD019689143196039
:1030D0001B68002B10D1402221000E4B0E31DA6705
:1030E0000D4A1388A34313800C4BDA698A43DA61D3
:1030F0005A6910318A435A6100242B78084A9B0090
:103100009C50FF232B70FFF7C5FE200070BDC0460A
:103110003003002004E100E00048004100040040CA
:103120003C03002070B50400FFF79CFE63785BB29F
:103130001D00062B30D0217802250B292CD8A3782E
:103140000135002B28D0164B0A019B185B88002BF9
:1031500022D0A3685A1E9341E268DBB2002A01D054
:10316000022213432269002A01D0042213430622BB
:1031700062700F240B48214002780025A2430A43C5
:103180000270094A137007225340084A1370022341
:10319000074A11780B431370FFF77CFE280070BDBF
:1031A000700200203F4800414D4800414C4800411A
:1031B00040480041037810B504000C2B10D8FFF7ED
:1031C00051FE0F20074922780B78024083431343B6
:1031D00000220B70044B1A7008236370FFF75AFE2D
:1031E00010BDC0463F4800414048004170B5050051
:1031F000297103780C000B2B14D8FFF733FE2978C4
:103200000F25094829400378084AAB430B433F2167
:103210000370536C0C40064924020B401C43546459
:10322000FFF738FE70BDC0463F48004100480041EE
:10323000FFC0FFFF70B50500697103780C000B2B10
:1032400014D8FFF70FFE29780F2509482940037885
:10325000084AAB430B4303210370536C0C400649EF
:10326000A4050B401C435464FFF714FE70BDC04618
:103270003F48004100480041FFFF3FFFF0B587B0E5
:1032800001930CAB1E780DAB1B78050002930EABBF
:103290001B780078039310AB049105921F780B28DC
:1032A00002D9002007B0F0BD6B78062BF9D0AB78BF
:1032B000002B00D178E01021080002F04DFC00281E
:1032C000EFD02B783A4A1B019B181A00D1680029CD
:1032D00004D0D1688B4201D0D268F7E7D0600123D7
:1032E0000221AB709E4203D04918022E00D0190073
:1032F000062402881A4302800288A24302800288C0
:103300001234A2430280153C02882640294C360222
:10331000224016430680029E0288274C1E4022400F
:10332000B60216430680039E0288244C1E402240AB
:10333000F602164306800288214E3B4032401B03B2
:103340001343072203800F9B1A4003885203DB04B8
:10335000DB0C134303806B469B884380049B4360D4
:10336000029B002B08D0019B42684B43002F01D0E9
:103370000F9CA340D3184360059B8360039B002BE5
:1033800008D0019C4C438168002F01D10F9B9C40C9
:103390000C1984600023EA789A4203D02B78044AFF
:1033A0001B019B18C3607DE7014B0001C01896E725
:1033B00070020020FFFCFFFFFFFBFFFFFFF7FFFF96
:1033C000FFEFFFFF8378C170002B11D00378094A0B
:1033D0001B019B181A00D068002804D0D0688342D3
:1033E00001D0D268F7E70020814200D01800D060F9
:1033F0007047C0467002002010B5024802F09DF9E7
:1034000010BDC0466C03002010B5024802F095F9CB
:1034100010BDC046A8050020F7B501240326154FAE
:103420001549380000F028FC1449154800F024FC28
:103430001449154800F020FC1449154800F01CFC04
:103440001449154800F018FC144D1549280000F0E7
:1034500013FC39000096230001940022114802F069
:1034600001F90096290001941E231F220E4802F044
:10347000F9F8F7BDE407002000080042000C004204
:10348000E807002000100042EC0700200014004272
:10349000F007002000180042F4070020F807002081
:1034A000001C00426C030020A8050020FEE700007D
:1034B000034B10B51B68002B00D0984710BDC046C9
:1034C000FC07002070B50F490F4CA14204D100F059
:1034D0008FF802F01BFAFEE70C4D00238D42F6D068
:1034E000CA18E818A24205D3094B8242EFD0094915
:1034F000002204E0006804331060F1E704C38B424B
:10350000FCD3E4E700000020C000002000770000AA
:10351000C0000020380E002010B500F066F800282A
:1035200001D100F057F810BD014B18607047C0463C
:10353000FC070020014B18687047C04600080020B7
:10354000F7B51348012284461249134C8E6863680C
:1035500005689B0E1340019288686268019F920E75
:103560003A4067463F6893420ED1BD420CD1864235
:103570000AD35B19FA254868AD00861B07486B43E0
:103580007043000DC018FEBD3D0013000600E3E7C8
:103590000008002010E000E000ED00E055550000BC
:1035A00070B5041E10D0FFF7CBFF050000F01CF82B
:1035B000FFF7C6FF054B401B9842F7D9FA23013CA1
:1035C0009B00ED18002CF3D170BDC046E70300004E
:1035D0007047000010B5034A13680133136000F010
:1035E0000FFB10BD0008002070470020704700004E
:1035F0001E2270B546484749436893431C3A13431B
:10360000436008238C6923438B61434C434B9C826A
:103610009C8A14439C82DC681442FCD00124404AFA
:1036200014701578254203D055786DB2002DF8DB63
:1036300001249460547864B2002CFBDB394C546054
:10364000547864B2002CFBDB8224E401548054786B
:1036500064B2002CFBDB02249C840E34DD6825421E
:10366000FCD0314CDC621024DD682542FCD09D8CFE
:103670002E4C2C439C841024DD682542FCD002246F
:103680009D8C80262C439C844024DD683542FCD0F0
:10369000DD682542F9D01024DD682542FCD00024E5
:1036A0009460547864B2002CFBDB214C5460547855
:1036B00064B2002CFBDB1C6A1E4D2C4080251C6272
:1036C0001C6AAC431C62032393601B4B536053780A
:1036D0005BB2002BFBDB0023FF240B72174A4B72FB
:1036E0008B72CB72164B1A60164B174A1B68116807
:1036F0009A065B01C90E2340520F12020B4313437B
:10370000124A1385802342681343436070BDC0464C
:1037100000400041000400400C060000000800408A
:10372000000C004001050100B905FF7D040A0000FE
:1037300000070300FFFCFFFF03060100006CDC0232
:1037400008000020246080002060800000400042CB
:10375000FA21314B10B51868890002F011F92F4B8E
:103760000138984256D82E492E4A4860C020136A24
:1037700000061B021B0A03431362002407238C600C
:103780000B608021136A09061B021B0A0B4313629C
:10379000FC22254B196A0A431A62FC22196A92011B
:1037A0000A431A62A022196AD2020A431A6220004E
:1037B0000021013400F076F8142CF8D11B4B1C00CA
:1037C0005A7852B2002AFBDB194A5A80194B1A0068
:1037D000597EC9090129FBD0E421C90099803F2104
:1037E000D970537EDB09012BFBD0C02300205B0185
:1037F0001361907000F024F863785BB2002BFBDB60
:103800000D4B0E4A6380D379DB09012BFBD041239A
:10381000537010BDFEE7C04608000020FFFFFF0008
:1038200010E000E000ED00E000040040000C00406B
:103830001E400000004000422140000000480042BD
:10384000164A00B51300517EC9090129FBD0013881
:10385000042816D81969124A0A400F211A615A78A9
:103860008A4302F083F80308060B030011000122CB
:103870000A435A7000BD11000322F9E71100022229
:10388000F6E7F02311691B050B430F2113615378F1
:103890008B43190002230B435370EBE700400042B7
:1038A000FFFFFFF0182330B51D000400454308203A
:1038B000204A55192856013014D0032912D808007F
:1038C0006343D156D31802F051F802280E1B5868F2
:1038D000CB010221184A9B181A184032117001229C
:1038E00082405A6030BD5868CB010621124A9B18AD
:1038F0001A1840321170012282405A609A61F1E731
:103900005868CB0106210C4A9B181A1840321170D6
:10391000012282405A605A61E4E75868CB010221D3
:10392000054A9B181A1840321170012282409A6091
:10393000D8E7C046E4700000004400411823F0B509
:1039400008245843114A13181C5701341BD0012670
:1039500035005F688356BD400D4ADB019A189068B8
:1039600005420BD10C00601E8441D2194032107800
:1039700034400336A400B04320431070044A9B181F
:10398000002901D15D61F0BD9D61FCE7E47000009C
:1039900000440041182310B5082443430749002080
:1039A000CA181457013408D05B560549DB015B186F
:1039B000186A5368D8400123184010BDE470000015
:1039C0000044004118224243F8B52C4E0300B218BF
:1039D000127A52B2140001320ED0481C00240C2876
:1039E0000AD801F0C3FF071F1F1F1F1F1F1F1F0B38
:1039F0000B0B0B00012464422000F8BD092905D1FE
:103A000000211800FFF74EFF0024F5E70A2901D135
:103A10000839F6E700240B29EED10A391800FFF720
:103A200041FFE9E718225343F218556801202C00A2
:103A3000F356134ADB016E089B18C9B204409E1965
:103A4000002C0DD00F24303632780901224011436A
:103A5000C9B25B19317040331A7810431870D3E73C
:103A600032000F27303216785B19BE433143117094
:103A700040331A7810431870BEE7C046E470000067
:103A800000440041F7B5C31D0193002306000D005B
:103A9000041D009321780A22280000F09BF82E21B3
:103AA0000700280000F04FF8009B3F18DB19009337
:103AB000019B01349C42EDD1F17928000A2200F0EB
:103AC00089F8009B1818FEBD024B083303600023E1
:103AD000436070473475000030B503AC2578044C62
:103AE000C5710834046001714271837130BDC046F4
:103AF00034750000F7B506000D000C008B1801931B
:103B0000019B671B9C4207D0336821781B683000FB
:103B1000984701340028F3D13800FEBD70B5040089
:103B200008000D0002F0FCFB2368020029005B681E
:103B30002000984770BD10B50B1E02D0FFF7EEFFB6
:103B40000300180010BD10B503681B68984710BD2E
:103B500010B50249FFF7E2FF10BDC04640750000F6
:103B600070B50400FFF7E7FF05002000FFF7F0FF46
:103B7000401970BDF0B58BB06B46150000220533BF
:103B80000600DA770800012D00D80A2509AC2900C3
:103B900001F07CFFCAB2130037330700DBB20929FA
:103BA00002D813003033DBB2013C2370002FEED17A
:103BB00021003000FFF7BFFF0BB0F0BD10B5002AA9
:103BC00004D10368C9B21B68984710BDD2B2FFF791
:103BD000D1FFFAE710B5FFF7F1FF10BD10B50400F3
:103BE000FFF7F6FC014B1C6010BDC0460C00002026
:103BF0000122024B52421A607047C0460C0000205E
:103C0000164A10B51368591C26D0013B1360002BCF
:103C100022D172B6124B134A0433934213D9124A7B
:103C200001211000147D0C42FCD02021148BFF31A7
:103C30009B085B0021431183D3610C4B138001234C
:103C4000027D1A42FCD0BFF34F8F094B094ADA605C
:103C5000BFF34F8FC046FDE710BDC0460C000020EB
:103C600000200000030200000040004102A5FFFF09
:103C700000ED00E00400FA05016070479446F0B5DD
:103C80009E1E721E96416246056892072F68360690
:103C90003A4332432A60072505AC24780068A40122
:103CA0002940214342680024022B00D05C031143C9
:103CB00021434160F0BD30B5C0250368AD031C68E9
:103CC00012052A402243C0240904A40221401143C2
:103CD000196003685A6814435C6030BD01230268B0
:103CE00011680B43136003681A68D207FCD4DA69C1
:103CF000D207F9D470470223026811680B4313609E
:103D00000268D3699B07FCD4704703681A7ED20708
:103D100002D41A7E9207FCD57047002203685A83AA
:103D200070470368187E4007C00F70470368187E0D
:103D3000C0097047802302685B42117E0B431376F3
:103D400070470368588B8007C00F704702230268D2
:103D5000518B0B43538370470368187EC007C00F15
:103D600070470368188DC0B2704703681A7ED20787
:103D7000FCD589B2012019857047012203689A7524
:103D80007047012203681A757047000070B501265C
:103D900004684B0833403140256809075B070B4333
:103DA0002B43236004685100034801F0E9FD01380A
:103DB000C0B2207370BDC046006CDC0201230268F3
:103DC00011680B43136003681A68D207FCD4DA69E0
:103DD000D207F9D470470223026811680B431360BD
:103DE0000268D3699B07FCD470470368DA699207BD
:103DF000FCD402211A688A431A6070470268936AE9
:103E00005B0A5B021943916203681A7E5207FCD574
:103E1000986AC0B2704700000368214A30B59342E7
:103E20002FD0204A93422FD01F4A93422FD01F4AAF
:103E300093422FD01E4A93422FD01E4A93421FD145
:103E40000E2319220121032599401B48C02401603B
:103E500099082B40AB40FC359D4089000918A4000F
:103E60000859A843C0259D402B0003430B518023D4
:103E7000DB011A43114B5A805A7852B2002AFBDBFD
:103E800030BD09231422DDE70A231522DAE70B23CC
:103E90001622D7E70C231722D4E70D231822D1E7E7
:103EA00000080042000C00420010004200140042D2
:103EB00000180042001C004200E100E0000C00403D
:103EC000F8B504000F0016001D00FFF7A5FF200045
:103ED000FFF704FF1C21BB000B4071072268090C8F
:103EE0000B431360842322689375012F1AD110218C
:103EF000012E00D008390C4B69431868C00001F04E
:103F00003FFD0722216802408B895203DB04DB0C52
:103F100013438B81226803049089DB0C400B400320
:103F200018439081F8BDC04608000020F7B5060090
:103F3000019308AB1F780D001400FFF73FFF30001E
:103F4000FFF76AFFC022240592031440BA070C272A
:103F500017433C43C0270722BF022D0433683D406E
:103F600025431D60019B316813401A0080239B028A
:103F700013434B60F7BD0020704770B50F26CB1D73
:103F8000013902003240D5B22C0000093034092A30
:103F900000DD07341C70013B8B42F2D170BD000084
:103FA00010B50C000B4B1868FFF7E7FF21000A4B18
:103FB00008311868FFF7E1FF2100084B103118683D
:103FC000FFF7DBFF2100064B18311868FFF7D5FF1C
:103FD000202010BD0CA0800040A0800044A08000E4
:103FE00048A0800008B4024B9C46103808BC6047CB
:103FF000A13F000070473F20704713B56B46026831
:10400000D9710733546819000122A04716BD00007A
:1040100070B50A260B7892B06E44023305000B701F
:104020003C220021300001F0BEFD394801AC069071
:10403000384824210790062020776846364AA17424
:104040002281364A364BA281FD3AFF3A8018C17769
:10405000684623390630C17768460730C17702A821
:10406000C1770720F277032608316944C87703A98E
:10407000CE7710212B366E443170092621851F31F1
:1040800069440E700CA9053E0E7033212380022373
:1040900069440B7006360DA90E7022493536A1868B
:1040A0003B216E44307010A86274E27702703D329A
:1040B00069446A440B70137040210022E37023713D
:1040C0006371A37341336B44218719705A702B7D40
:1040D000C039A370A37263770133DBB2A3776A7D23
:1040E0000B200D0068441543C577312068440370E8
:1040F0003A23501C6B441870412302320A436B442C
:104100001A7021004222084800F08EFF12B070BDE4
:104110001001042402060524090400000102000025
:10412000080B0000070500006C08002008B4024BD3
:104130009C46103808BC60471140000070B5027DF5
:104140000B790C0000259A420BD10B784E78A12BED
:1041500009D1212E05D107221F49204800F064FF14
:104160000135280070BD212BFBD1202E2BD1072239
:1041700019491A4800F08EFE174B1A78597809022F
:1041800011439A7812041143DA7812060A439621F1
:10419000C9008A421DD1DB79DB071AD4FA20FFF768
:1041A0001DFD00210D4801F04BF80125232ED8D12B
:1041B000E378A2781B021343094A002107481360E1
:1041C00001F03EF8CDE7222EEFD18A78024BDA716A
:1041D000D2E7FFF70DFDE4E7140000206C08002093
:1041E0001000002008B4024B9C46103808BC604701
:1041F0003D41000010B5417D006A013100F074FDC1
:10420000034B1B6801335A1E9341181810BDC0465A
:104210001C00002010B5417D006A023100F07AFDDB
:1042200010BD10B5417D006A023100F041FD10BDA6
:1042300070B50D00417D0400130002312A00006AB0
:1042400000F03CFE002801D10123636070BD000036
:1042500010B5054C23685A1C04D103685B69984764
:1042600003002060180010BD1C000020074A030056
:10427000106810B5411C03D001235B42136010BDD0
:10428000597D186A013100F0C9FDF8E71C000020D3
:104290007047002070470000FA239B0010B5836030
:1042A0000F4B0022C3820300283383610D4B0400AF
:1042B0004260C2611800443323610830631D2162EB
:1042C0002060DA778323A362813BE3628033236338
:1042D00000F0AEF82100103100F07EF8200010BD93
:1042E0000302000044750000022110B5094B1A6852
:1042F000437D5B01D318FF339C7A21439972437D40
:104300000133DBB25B01D3180122FF33997A0A43F0
:104310009A7210BD240D00207047000010B50249AC
:104320000248FFF7B9FF10BD6C0800200408002008
:1043300070B50E0000254468002C0BD023683100B6
:104340005B6820009847002802DB2D18E468F3E73B
:1043500001256D42280070BD70B50D004468002C29
:1043600008D0236829009B6820009847002802D1C4
:10437000E468F4E7200070BD70B50D0000264468C5
:10438000002C09D02368290020001B6998473618A3
:104390002D18F6B2E468F3E730002C7070BD70B5EC
:1043A0000D004468002C08D0236829001B682000F9
:1043B0009847002802D1E468F4E7200070BD70B58A
:1043C0000D004468002C06D023682000DB6829001B
:1043D0009847E468F6E770BDF0B58C79457803003E
:1043E0002A190020072A1FDC5A68824216D1596018
:1043F0001A78C8790A7112184D711A7000220B4D83
:10440000D0B284420FD98F6858789600F759860049
:104410000130775101325870F2E70200D06800286D
:10442000FBD1D160E4E70120F0BDC0464408002084
:104430000121064A10B5136805480B4004D18024B9
:10444000640004804360116010BDC046380800203D
:104450003C080020704710B5040001F07BFA2000F2
:1044600010BD0000F0B5822919D1C3B2294D5A01FF
:10447000AA189169284C80010C40C021890521436C
:1044800091612649083340187021506128685B010A
:104490001A5C8A43110030220A431A54F0BD0029E5
:1044A000FCD1C026C1B21B4C4B01E3189A681A4DCF
:1044B000B6052A4032439A60194A800182185A6030
:1044C0000A000727246808325201115DB9430F0022
:1044D0000121394311559F6910493D4040182E4331
:1044E0009E6158617020115D8143080010210143D5
:1044F000115599680B48A2180840802149030143CF
:1045000099609968890B89039960402311790B435D
:104510001371C3E7240D0020FFFFFF8F98080020D0
:10452000580A0020FF3F00F0EFF3108303600123DF
:10453000436072B670470368002B02D162B6BFF3C6
:104540006F8F7047F7B50600FC36B3690400002B87
:1045500018D1B2277F00C55D6846FFF7E5FF019BD4
:10456000EDB2013B02D3E55DEDB2FAE76846019397
:10457000FFF7E1FF002D01D10020FEBD706E336E0C
:10458000C01AFAE76846FFF7CFFFD8220025019B43
:104590005200013B02D3A55CEDB2FAE768460193F5
:1045A000FFF7C9FF002DE7D0D6235B00E058043B9E
:1045B000E358E5E710B54468FC3043690B48DBB2CB
:1045C0005A01A21891680833084080214903014329
:1045D000916091685B01890B890391602268D3180F
:1045E000402219790A431A7110BDC046FF3F00F0FE
:1045F000F7B50500FC356B694268DBB219000400B1
:104600000831106849014118C979C90711D55B0102
:10461000D21893689B049B0C0CD12000FFF7CAFFB3
:1046200063681A686B69DBB208335B01D3187F22B9
:10463000DA71F7BDE969002923D16B6623000126F1
:104640006933FF33EE6168465360B227FFF76CFFB2
:104650007F00B221019BFF31013B5A1C38D0D82288
:10466000E6555200A25C581ED2B26254625C844687
:10467000002A04D120000193FFF79CFFE9E763467D
:10468000EBE7D621490063500023EB6123001D3383
:10469000FF3353606846D826FFF746FF01277600B0
:1046A000B221019BFF31013B5A1C11D0B222A75508
:1046B0005200A25C581ED2B26254625C8446002A48
:1046C00004D120000193FFF775FFE9E76346EBE7AC
:1046D00068460193FFF72FFFA2E7F7B5060068468B
:1046E0003400FFF721FF0027FF22019BFC34013B30
:1046F0000DD3E0682169884204DBE7682069D71B95
:104700003F18F4E72769E1687F1A013FEFE7684641
:104710000193FFF710FFA3696846002B52D1FFF702
:1047200003FFB221019B4900013B5A1C0CD0755C70
:104730005A1EEDB2002D05D168460193FFF7FBFE2E
:104740002800FEBD1300F0E7684601930025FFF73F
:10475000F2FEFF22236EBD4214D0616E994211D940
:10476000591CF3182166FF33587FE3682169013330
:10477000C0B213408B4203D0E16871180872E36045
:104780000135E7E7626E9A42DAD1002323660133EE
:10479000A3616846B224FFF7C7FE6400B22200217D
:1047A000019BFF32013B581CC6D03155B05C5F1EE7
:1047B000002805D0B15430000193FFF7FBFEEDE770
:1047C0003B00F0E7FFF7B0FED821019B4900013B19
:1047D0005A1C06D0755C5A1EEDB2002DACD01300E9
:1047E000F6E768460193FFF7A6FED623D4225B00C6
:1047F00000259C465200B358BD4203D06146715813
:10480000994220D86246B2589A4299D1D4220023C4
:104810005200B3506846A361D824FFF785FE6400B8
:10482000B2220021019BFF32013B581C00D183E7DB
:104830003155B05C5F1E002819D0B154300001938F
:10484000FFF7B8FEECE7591CB150FF21F3186933AC
:10485000FF331878E368C0B201330B4021698B4203
:1048600003D0E16871180872E3600135C3E73B00CB
:10487000DBE710B50400FFF730FF2300FC331969B4
:10488000DA68914203D01B69E418207A10BD012038
:104890004042FBE710B50400FC34FFF71EFFE06860
:1048A0002369C01A01D50130FF3010BDF0B585B0C5
:1048B000019200910500FFF710FF02A8FFF734FEF8
:1048C00001200024FF26039B40425A1E531C1FD088
:1048D0002B00FC3301998C4218D2D9681F69C91B7F
:1048E00001D50131FF31002910D01969DF688C46EC
:1048F0000100BC4506D019691F69691801373740A6
:10490000097A1F61009F39550134E3E7013ADDE779
:1049100002A80392FFF70FFE200005B0F0BD37B5E7
:104920006B46DC1D00230D002370FFF781FD210085
:10493000FFF7FEFC2B681818286020783EBD0000A9
:10494000F7B50024514B012105001A201C70FEF719
:10495000A9FF01211A20FEF7F1FF4D4B012119207B
:104960001C70FEF79FFF01211920FEF7E7FF2023AF
:10497000484A0F20D1690B43D361012246490B7885
:1049800013430B70454B19788143197006211C782D
:104990002143197042490C7822430A701A78024068
:1049A0001A70602219780A431A703E4B3E4A5A80A8
:1049B0005F78FF09FCD13D48FEF7B6FD01233C4C72
:1049C0003C4E2268300011780B431370802239006E
:1049D000520001F0E8F822689378DB07FCD45662B5
:1049E0001F26354B1B68590B980C9B0131403040FA
:1049F0005B0FB14200D105211F2800D10238072BDF
:104A000000D1043B31408901178D01912B49304081
:104A10000F40019939431185118D0700B1430800FA
:104A200038431085118D1803254B7F260B40034317
:104A30000C2013850823D17881430B430321D370C5
:104A40002268D3788B4301390B43D37022681378E3
:104A5000334013700423226816783343137022689E
:104A6000C1241389A40083431648138103591B02F0
:104A70001B0A035180230360137813481943012351
:104A800011702B700021FFF747FCF7BD8D08002047
:104A90008C08002000040040584400413C44004180
:104AA00059440041000C00400640000099540000A9
:104AB000240D0020280D0020246080003FF8FFFF17
:104AC000FF8FFFFF00E100E00408002000780028CD
:104AD00010D00121084B1B681A898A431A810822C9
:104AE000198B0A431A830422198B0A431A83002262
:104AF000024B1A607047C046240D00201C0D002098
:104B000010B50F4A93699B0B9B03936113680222B4
:104B1000FF331A729879823A02439A711A7A92078D
:104B2000FCD57F24074A2140937A0800A34319004B
:104B3000802301439172917A5B420B43937210BDC3
:104B4000240D00200050004110B50C00FFF770FC50
:104B50002100FFF724FC002804D1034A93699B0B32
:104B60009B03936110BDC046240D0020F7B50D00D6
:104B7000832A19D1CBB2404C5A01A21891693F48FF
:104B8000AD010840C0218905014391613C4920687D
:104B90006D187021083355615B011A5C8A4311005E
:104BA00040220A431A54F7BD022A5FD1354B8A00CE
:104BB000D058002802D003685B699847DA2040008B
:104BC00000F0C4FE802204002B4E2F4B4660036091
:104BD00052000021083000F0E6FF2200B22100233D
:104BE000FC324900D3605561136113669361D36150
:104BF0005366635444316350043163500431635449
:104C0000B221FF316354FF202B000340590101936F
:104C100071188F68194BAD003B40C027BF051F437B
:104C20008F600727019B366808335B01995DB943A4
:104C30000F000321394399552300516966680140EB
:104C40001D334901FF3371184B60636852691B685B
:104C5000024052019B1801221B18997A20000A4336
:104C60009A72FFF7A7FC074BEC509CE71100280055
:104C7000FFF7F8FB97E7C046240D0020FFFFFF8FEA
:104C80009808002070080020A475000070B5050089
:104C90000124064BA200D258002A06D02100280089
:104CA0000134FFF763FF0A2CF3D170BD44080020E4
:104CB0000B4BCAB20B488901C9185301C31859617B
:104CC00099690832890B89039961036852019A181E
:104CD0000223D3715179823B0B4353717047C04615
:104CE00098080020240D0020084B8A00D05810B5E9
:104CF000002803D003689B68984710BDC9B2044BD5
:104D00004901591888688004800CF6E77008002073
:104D1000240D002010B50C00FFF7E6FF00280CD092
:104D2000064BE4B21B68083464011C1980236279C5
:104D30005B42134363710223E37110BD240D002015
:104D4000F0B51C00304B85B01B6807000D000292C7
:104D5000002B55D02D4E3178C9B2002902D119202F
:104D6000FEF7ECFD64233370294BAA00D0580028CD
:104D700008D0036822005B6802999847040020006D
:104D800005B0F0BD29003800FFF7AEFF844204D91A
:104D900029003800FFF7A8FF04000121EBB21D4EE7
:104DA00003935B010193F21893689B0B9B03936041
:104DB000019A336802989B18FF335A7A0A435A7251
:104DC000154BA901C918220000F0E4FE002CD6D032
:104DD00029003800FFF788FF0028D0D14021039B2D
:104DE000326808335B01D318187901431971012126
:104DF000D971019BD318FF339A7A0A439A72BEE79E
:104E000001246442BBE7C0461C0D00208C08002032
:104E100070080020240D0020580A002013B56B46AE
:104E2000DC1D22000123FFF78BFF012801D1207830
:104E300016BD01204042FBE770B5CBB2124A1348C1
:104E40005C0189018918021951609168104D08337D
:104E50000D40802149032943402591609168890BC9
:104E60008903916001685A018A18167935431571D2
:104E700095796D06FCD55B01C918CB79DB07FCD5AC
:104E800000198068C0B270BD580A0020240D0020AF
:104E9000FF3F00F070B50D0000211400FFF7CCFFBC
:104EA000A04200D9200000230349A34203D0CA5CDA
:104EB000EA540133F9E770BD580A0020F0B51E002E
:104EC0003F4B85B01B680F000192002B3FD0802321
:104ED000DB019E423BD83B4C2178C9B2002902D16C
:104EE0001A20FEF72BFD642300252370364BBA01F0
:104EF000D3180293002E2CD0344B1B680393FF234E
:104F00003B401C0000930834039B64011C19A379E7
:104F1000DB0921D02E4B2F49186800F031FD2E4BB4
:104F20001721584300F02CFD2C4BE279920713D443
:104F3000DA5D002A01D10138F7D20122DA55009B4F
:104F40005A01224B9B189A69920B92039A61012590
:104F50006D42280005B0F0BD0022204B3400DA5528
:104F60003F2E09D9009B40245A01184B9B188022E0
:104F7000996912060A439A6122000199029800F089
:104F800009FE009BA1045A01104B890C9B18029A40
:104F90002D195A619A69361B920B92030A439A6142
:104FA000009B039A08335B01D3180222DA71597906
:104FB000823A0A435A71019B1B1901939AE7C04632
:104FC0001C0D00208D08002098080020240D0020D2
:104FD0000800002040420F00701101008F080020DF
:104FE00070B50D001C000D4BAE01F618110030001D
:104FF000220000F0CFFDEDB209496D014D196E613F
:10500000AB69084A20001340AB61AB69A2049B0B5B
:10501000920C9B031343AB6170BDC04698080020FF
:10502000240D0020FF3F00F0F7B5104B01901B78D6
:105030000F001500002B0CD10D4B16001C78002C16
:1050400009D00C4E0C4834882018641900F0A2FDD9
:1050500034802800FEBD002EFBD03A193300002119
:105060000198FFF7BDFF2418361AF4E7180C00204A
:10507000190D00201A0D0020190C0020F8B50F00A2
:1050800016000024012A26D9100000F06FFD05004B
:10509000380001F045F90323022201304000287056
:1050A0006B7096420DD9397800290AD0531CDBB2B7
:1050B0000137A9549E4203D00232EC54D2B2F0E739
:1050C000320029000548FFF7AFFF441EA041C4B2DB
:1050D000280000F055FD2000F8BDC0466C080020F7
:1050E000F0B50024012685B0184B0F0069461E70EC
:1050F00005000094FFF713FC154B01A90B806A3BD8
:10510000FF3BCB715A330B72009B8C7109334B8080
:105110000E4B4E7108711C703A00092F0FD00D4FC5
:1051200009223E700C4E280000943480FFF77CFF6B
:1051300069462800FFF7F3FB328808493C702800D5
:10514000FFF772FF012005B0F0BDC046180C00202B
:1051500009020000190D00201A0D0020190C002072
:1051600070B5CE7892B005000C00022E0BD18B7971
:10517000C9792E4809021943FFF7B2FF411E884141
:10518000C0B212B070BDFFF753F92100FFF7E4F889
:10519000002803D0C117081AC00FF2E7012E0ED164
:1051A000E279A37912021A432149112A3CD8D2B2DA
:1051B000002A39D02800FFF737FF0120E1E7032E4E
:1051C000DFD1A378002B28D0022B08D1E279A37974
:1051D000120218491A432800FFF750FFD1E7012BAC
:1051E00005D1E279A37912021A431349F3E7032B9D
:1051F000C7D10100412201A800F0D5FCFFF718F942
:1052000001A9FFF7B9F8002805D0E279A3791202C5
:105210001A4301A9DFE70378FFDEE279A3791202DE
:105220001A430649032AC2D90A78C3E76C0800204A
:10523000E0750000C0750000D4750000D075000056
:10524000CBB204495B01C9188B699B0B9B038B6133
:105250007047C046240D002037B5050048780C0083
:105260000B2810D800F082FB061B0F2B0F40456166
:10527000494C5A5D097801AA002906D10223118000
:105280002800FFF7ADFE01203EBD00231380284B10
:105290001B78012B00D1137002230021F0E78A78DC
:1052A0000023012A03D101AA1380224BF0E7204AF0
:1052B0001370214A93699B0B9B039361E3E78C78FE
:1052C000012C06D100211B4B01AA1C701170230078
:1052D000D6E70120002CD7D1154B174A18709369D7
:1052E0009B0B9B039361CFE789782800FFF708FCAD
:1052F000C9E72800FFF734FFC6E701230F4ACCE7D0
:105300000B780020DB06BFD12800FFF7BFFCA27896
:105310000A4B0B481A60FEF7E7FFCAE70123094A68
:10532000BBE78A78074B1A60C3E70020ACE7C046AA
:105330008E08002096080020240D00201C0D00205F
:1053400004080020200D00204B4BF7B51E78050007
:10535000002E00D07EE0494C23689A8B12070DD5B1
:10536000082231009A833000FFF77CF8102223686E
:10537000FF33997A0A439A72414B1E6023689A8BD5
:1053800052071FD504229A833E4A1378002B0AD075
:105390001378013BDBB213701378002B03D101218A
:1053A0001A20FEF7CBFA384A1378002B0AD013786C
:1053B000013BDBB213701378002B03D101211920BC
:1053C000FEF7BCFA2368FF331A7A920603D520222F
:1053D000597A0A435A721A7AD20623D569460800C6
:1053E0002A4AC0CAC0C0A268920B9203A26040229F
:1053F000587902435A7160230A7828001A422AD148
:10540000FFF72AFF2368FF33002827D080229979ED
:1054100052420A439A711A7A520603D54022597AA7
:105420000A435A727F2601252368FF331E722F001C
:10543000236808377F01DB19DB79002B07D0144B79
:10544000AA00D05800280DD003681B689847013582
:10545000082DECD1F7BDFFF777FBD3E720210D4AEC
:105460009171D8E7FEF7E4FF2900FEF7A8FF236853
:10547000DF19FE71EBE7C046190D0020240D002056
:105480001C0D00208D0800208C080020580A0020E8
:1054900070080020FF50004110B50248FFF754FF8C
:1054A00010BDC0466C080020014B024A1A607047CC
:1054B000240D0020005000410120704710B5036802
:1054C000014A1B6A984710BD130400000300FC3317
:1054D000D9699A69914203D0DB69C018007D704791
:1054E00001204042FBE710B504000069FEF7F6FB1F
:1054F00022000023FC329361D36186229200A4181B
:105500006360A36010BDF02001403039484248413B
:105510007047F0231B011940802306209B0099420D
:105520000AD00133FF330130994205D0802302387D
:105530005B00994200D0002070470F2001400020FE
:10554000012903D00239481E8141481C70470000E0
:105550008923F0B5182685B002919B000400C05C39
:10556000330008214343324D1700EB185956FEF71C
:1055700029FA304B0821E05C33004343EB185956BD
:10558000FEF720FA2C4BE25C0393022A09D1113377
:10559000E05CFF2805D008214643AE197156FEF79E
:1055A00011FA8A26B600A05DFF2819D00121FEF766
:1055B00079F91822A35D21495A43AB56AD18DB0196
:1055C00058188B21890060501D4901225B188C21DD
:1055D0008900635069688A408D21890062501A6091
:1055E0000122029B11002069FEF76AFC39002000AD
:1055F000FFF78FFF390005002000FFF79EFF3900FD
:1056000006002000FFF77FFF33000090290020698B
:105610000122FEF733FB0B4B2069E25C039BE15C4C
:10562000FEF749FB2069FEF766FB05B0F0BDC046FA
:10563000E470000025020000270200001844004129
:105640001444004126020000802210B504005200DC
:10565000002100F0A8FA23000022FC335A60200049
:105660009A6010BDF7B51D0008AB1B7804000093CD
:1056700009AB1B781600019300234360FA239B00BB
:105680008360114B0F00083303601430FFF7DCFF19
:1056900020001D30FF30FFF7D7FF89236A469B00AB
:1056A0002761E654094B1278E554094B2000E25477
:1056B0006A46084B1279E2548A22293BFF3B92004A
:1056C000A3541032A354FEBDF4750000250200005F
:1056D00026020000270200000300FC3358689B6884
:1056E000C01A01D50130FF30704710B5040020000A
:1056F0001D30FF30FFF7F0FF0028F8D12069FEF7DA
:1057000004FB10BD10B51430FFF7E6FF10BD030019
:10571000FC3359689A68914204DB5A689868801A89
:10572000FF30704798685B68C01A0138F9E710B518
:105730001D30FF30FFF7EBFF10BD10B5040000690E
:10574000FEF7FFFA002805D02069FEF70AFB206962
:10575000FEF7FCFA2069FEF7E4FA002820D0206961
:10576000FEF7FFFA2200FC329369D1690133DBB204
:105770008B4203D091696118087593618A239B005D
:10578000E35CFF2B0CD020001430FFF7C0FF09288A
:1057900006DC8B238D229B009200E358A2581A60EE
:1057A0002069FEF7D9FA00281AD020001D30FF30FA
:1057B000FFF792FF002822D086239B00E318996808
:1057C0005A68914218D08E219A684900A218515CFB
:1057D0009A680132D2B29A60C9B22069FEF7C5FA5E
:1057E0002069FEF7A3FA002805D02069FEF7A2FA87
:1057F0002069FEF792FA10BD01214942ECE72069C9
:10580000FEF7BFFAECE7000070B5040000690D0078
:10581000FEF7A2FA00283ED1FF2686239B00E3185C
:105820005A689968013232408A4223D1EFF31083DB
:10583000DB0710D41E4B5B68DB05DB0DEDD0103BA6
:105840005BB2002B10DA0F221340083B9B08194A69
:105850009B009B181B682069FEF77EFA0028DCD0AD
:105860002000FFF76AFFD8E79B08C033124A9B006D
:105870009B58F0E75A68013216409A68964205D064
:105880008E215A684900A21855545E602069FEF7BF
:1058900074FA012070BD20001D30FF30FFF71CFF9F
:1058A0000028B9D129002069FEF75FFAF1E7C04668
:1058B00000ED00E01CED00E000E100E0030070B549
:1058C000FC33D9699A69040091421AD0DA698218C6
:1058D000157DDA690132D2B2DA618A239B00E35C7A
:1058E000FF2B0CD020001430FFF711FF0A2806DD33
:1058F0008C238D229B009200E358A2581A60280046
:1059000070BD01256D42E8E77047000010B5FDF756
:105910001FFF00F0FDF8FFF7F7FF0120FDF740FE45
:10592000084C2000FFF70CF82000FFF7CFF8FCF739
:1059300081FCFCF7B5FC044B002BFAD000E000BF63
:10594000F7E7C0466C0800200000000010B500F02A
:105950000DF910BD10B500F013F910BD0B0010B516
:105960000100180000F0B6F810BD000002B4714646
:1059700049084900095C49008E4402BC7047C04692
:10598000002243088B4274D303098B425FD3030A7E
:105990008B4244D3030B8B4228D3030C8B420DD391
:1059A000FF22090212BA030C8B4202D3121209021F
:1059B00065D0030B8B4219D300E0090AC30B8B425D
:1059C00001D3CB03C01A5241830B8B4201D38B030B
:1059D000C01A5241430B8B4201D34B03C01A5241B0
:1059E000030B8B4201D30B03C01A5241C30A8B42F3
:1059F00001D3CB02C01A5241830A8B4201D38B02DE
:105A0000C01A5241430A8B4201D34B02C01A524181
:105A1000030A8B4201D30B02C01A5241CDD2C309F3
:105A20008B4201D3CB01C01A524183098B4201D36F
:105A30008B01C01A524143098B4201D34B01C01A5A
:105A4000524103098B4201D30B01C01A5241C308D2
:105A50008B4201D3CB00C01A524183088B4201D341
:105A60008B00C01A524143088B4201D34B00C01A2D
:105A70005241411A00D20146524110467047FFE799
:105A800001B5002000F006F802BDC0460029F7D09D
:105A900076E770477047C04630B51C00094B0500DB
:105AA0001B6885B0D868084B002A01D1074B1A0043
:105AB0000292019300912B002200054900F018F892
:105AC00000F002FD20000020287600004275000052
:105AD0003576000010B5040004481300002804D0F7
:105AE0000A000220210000E000BF10BD00000000FD
:105AF0000EB403B5010003AB044804CB0068019366
:105B000000F070F902B008BC03B018472000002074
:105B100070B500260C4D0D4C641BA410A64209D193
:105B2000002601F037F80A4D0A4C641BA410A64267
:105B300005D170BDB300EB5898470136EEE7B300CE
:105B4000EB5898470136F2E78400002084000020DB
:105B500084000020BC00002010B5034B0A000100A7
:105B6000186800F073F810BD2000002010B5034B3A
:105B70000100186800F0B0F810BDC04620000020F9
:105B800010B5034B0100186800F016F810BDC046B0
:105B900020000020002310B59A4200D110BDCC5C3B
:105BA000C4540133F8E703001218934200D1704740
:105BB00019700133F9E7000070B50500002910D015
:105BC0000C1F2368002B00DAE418280000F087FE81
:105BD0001D4A1368002B05D163601460280000F093
:105BE0007FFE70BDA34209D9216860188342F3D1BA
:105BF00018685B6841182160EEE713005A68002AB4
:105C000001D0A242F9D919685818A0420BD12068D6
:105C10000918581819608242E0D11068526841187A
:105C200019605A60DAE7A04202D90C232B60D5E74D
:105C300021686018824203D11068526841182160BF
:105C400062605C60CAE7C046280E0020F8B54B1EB3
:105C50000600194202D000252800F8BD0F000829CF
:105C600000D20827042A00D2042203233900033279
:105C70009A43083989183000140000F02DF80028E4
:105C8000E9D004380368002B00DAC018011D7B1E20
:105C9000CB187D421D406B1A0AD0C7180B2B17D9A1
:105CA0000268D21A3A6003603000FFF785FF3800BF
:105CB000220003680C32C118AA189142CCD92919C4
:105CC0000A1A9B1A026008C13000FFF775FFC3E78C
:105CD0005B423B60ECE70000032370B5CD1C9D43A5
:105CE000083506000C2D1ED20C25A9421DD8300007
:105CF00000F0F5FD254A14682100002919D1244C33
:105D00002368002B03D1300000F0F8FA206029004E
:105D1000300000F0F3FA431C2BD10C233000336029
:105D200000F0DEFD03E0002DDFDA0C2333600020FD
:105D300070BD0B685B1B19D40B2B03D90B60CC18FF
:105D4000256003E04B688C420DD11360300000F0F9
:105D5000C7FD200007220B30231D9043C31AE7D054
:105D60005A42E250E4E763600C00EFE70C00496838
:105D7000C3E70323C41C9C43A042E1D0211A300096
:105D800000F0BCFA431CDBD1C7E7C046280E002058
:105D90002C0E0020936810B5013B9360002B04DAB1
:105DA0009469A34207DB0A2905D01368581C1060C8
:105DB0001970080010BD00F0BBFA0100F9E7F8B552
:105DC00006000F001400D518AC4201D1002007E0F6
:105DD00021783A003000FFF7DDFF0134431CF3D196
:105DE000F8BD0000F0B59FB002900F0016000593BB
:105DF000002805D083690493002B01D100F064FCD6
:105E00007B4B9F425BD1029B5F68BB891B0762D5BE
:105E10003B69002B5FD0002306AC636120336376BF
:105E20001033A37635002B78002B01D0252B5CD1C5
:105E3000AB1B04930CD0320039000298FFF7BFFF70
:105E4000431C00D1C4E06269049B944663446361CF
:105E50002B78002B00D1BBE001220023524262606C
:105E600002A9543252186E1C2360E360A3601370C1
:105E7000A365317805225F4800F026FD751C0028D7
:105E800035D12268D30604D5532302A95B182021FB
:105E90001970130704D5532302A95B182B2119701D
:105EA00033782A2B2CD0350000210A20E3682A7889
:105EB0006E1C303A092A64D900292ED026E04E4BB8
:105EC0009F4202D1029B9F689FE74C4B9F429CD10F
:105ED000029BDF6899E73900029800F07FFA0028FA
:105EE00099D0012040421FB0F0BD01359BE7414BE6
:105EF0002268C01A01238340134323602E00B8E7B1
:105F0000059B191D1B680591002B01DB099304E01B
:105F10005B42E3600223134323602B782E2B0AD1CC
:105F20006B782A2B35D1059B02351A1D1B6805920B
:105F3000002B2BDB0793324E29780322300000F030
:105F4000C3FC002806D04023801B83402268013513
:105F500013432360297806222A486E1C217600F01C
:105F6000B3FC00283AD0284B002B25D10722059BF3
:105F700007339343083305936369039A9B1863615E
:105F800050E7434301219B18350090E701235B4212
:105F9000D0E700230A201A000135636029786E1CBF
:105FA0003039092903D9002BC5D00792C3E74243F2
:105FB000012352183500F1E705AB00933A00134B6B
:105FC0002100029800E000BF0390039B0133D3D16E
:105FD000BB895B0600D584E70B9884E705AB00938B
:105FE0003A000A4B2100029800F080F8ECE7C04626
:105FF000BC76000068760000DC7600009C7600002D
:106000006E7600007276000000000000BF5D0000A8
:10601000F7B5150001938A680B6900900C00934254
:1060200000DA130022002B6043321278002A01D0DC
:1060300001332B6023689B0602D52B6802332B604B
:10604000062723681F4027D0230043331B785A1E9E
:1060500093412268920630D422000199433200987D
:10606000089EB047431C25D0062320682A68E168B3
:1060700003400025042B03D18D1AEB43DB171D4091
:10608000A3682269934201DD9B1AED180027BD42E7
:1060900020D1002010E00137E3682A689B1ABB4238
:1060A000D2DD22000123193201990098089EB047E1
:1060B000431CF0D101204042FEBD3020E1184331A5
:1060C000087021005A1C45310978A2184332023366
:1060D0001170C1E7220001231A3201990098089E2D
:1060E000B047431CE6D00137D1E70000F0B589B0D6
:1060F00004920A0043320593039002920A7E0C0038
:106100000E9B6E2A00D186E01FD8632A33D008D8B0
:10611000002A00D18CE0582A4DD0250042352A7043
:1061200030E0642A01D0692AF7D1196825680A1D70
:10613000280629D508681A60002803DA2D23029A58
:10614000404213706B4E0A274FE0732A74D008D870
:106150006F2A1FD0702AE0D1202209680A432260EA
:1061600003E0752A16D0782AD7D12200782145324B
:106170001170614E22E025001A684235111D196028
:1061800013682B70012365E008681A606906D3D58F
:1061900000B2D1E719682568081D186008682E0646
:1061A00005D5544E08276F2A1BD00A2719E06D0623
:1061B000F7D580B2F5E745314E4E0A70186822686F
:1061C000011D00681960150621D5D30702D52023CB
:1061D0001A4322601027002803D1202322689A4303
:1061E00022602300002243331A706368A360002BEF
:1061F00058DB0422216891432160002854D1029D7C
:10620000002B5AD02500337842352B7055E05506C7
:10621000DBD580B2D9E71A680D68101D496918608E
:1062200013682E0601D5196002E06D06FBD51980B2
:106230000023029D23614FE01A68111D1960156843
:1062400000216268280000F03FFB002801D0401BBD
:106250006060636823610023029A13703CE0236945
:106260002A0004990398059DA847431C3ED0236843
:106270009B0715D4079BE068984239DA180037E08D
:1062800022000123193204990398059EB047431C4C
:106290002CD00135E368079A9B1AAB42F0DCE9E7A2
:1062A0000025F7E70028ADD0029D3900FFF7EEFB8F
:1062B000735C013D2B700028F7D1082F09D12368AA
:1062C000DB0706D563682269934202DC3023013D77
:1062D0002B70029B5B1B2361059B07AA0093210087
:1062E000049B0398FFF794FE431CB8D10120404261
:1062F00009B0F0BD797600008A760000002370B501
:10630000064C05000800236000F02CFC431C03D160
:106310002368002B00D02B6070BDC046340E0020D7
:106320000023C25C0133002AFBD1581E70470000D5
:10633000F8B505000E001400002804D08369002B76
:1063400001D100F0C1F9224B9C422DD16C68A369A8
:10635000A360A3891B0731D52369002B2ED02368A6
:106360002269F7B2981A6369F6B2834205DC21000C
:10637000280000F03BF9002826D1A3680130013B3A
:10638000A36023685A1C22601F706369834204D093
:10639000A389DB071AD50A2E18D12100280000F0A6
:1063A00025F9002812D00FE00A4B9C4201D1AC68BD
:1063B000CDE7094B9C42CAD1EC68C8E72100280010
:1063C00000F00CF80028CAD0012676423000F8BD53
:1063D000BC760000DC7600009C760000364B70B581
:1063E0001D6806000C00002D05D0AB69002B02D102
:1063F000280000F069F9314B9C420FD16C680C23E6
:10640000E25E93B219072DD4D90611D409230120D5
:10641000336037331343A381404270BD284B9C4205
:1064200001D1AC68EBE7274B9C42E8D1EC68E6E78A
:106430005B0713D5616B002908D0230044339942D0
:1064400002D03000FFF7B8FB002363632422A38946
:106450009343A38100236360236923600823A289F7
:106460001343A3812369002B0BD1A0218022A38990
:10647000890092000B40934203D02100300000F0CD
:10648000DFF90123A289134011D00023A3606369BF
:106490005B42A361002023698342BED10C23E25EEC
:1064A0001306BAD540231343A3810138B5E79207F9
:1064B00000D46369A360EDE720000020BC760000F3
:1064C000DC7600009C76000010B5062000F034FA5F
:1064D000012000F05DFB0000F7B58A8905000C0083
:1064E000130760D44B68002B04DC0B6C002B01DC21
:1064F0000020FEBDE76A002FFAD000232E682B6033
:1065000080235B01216A1A4034D0606DA3895B0748
:1065100006D56368C01A636B002B01D0236CC01AC8
:106520000200216A00232800E76AB847A189431CBA
:1065300006D12B681D2B30D82B4ADA40D3072CD537
:106540000023636023692360CB0405D5431C02D17B
:106550002B68002B00D16065616B2E600029C7D0CD
:1065600023004433994202D02800FFF725FB002086
:106570006063BEE701232800B847431CC6D12B68DF
:10658000002BC3D01D2B01D0162B01D12E60AFE7FD
:106590004023A2891343A381ABE740230B4301208F
:1065A000A3814042A5E70F69002FA1D00B680F60BF
:1065B000DB1B01930023920700D14B69A360019B71
:1065C000002B00DC94E7019B3A00216A2800A66AB0
:1065D000B047002803DC4023A2891343DFE7019B77
:1065E0003F181B1A0193EAE7010040200B6970B5C0
:1065F00005000C00002B01D1002070BD002804D044
:106600008369002B01D100F05FF80B4B9C4209D14C
:106610006C680C22A35E002BEED021002800FFF74F
:106620005BFFEAE7054B9C4201D1AC68F1E7044B04
:106630009C42EED1EC68ECE7BC760000DC76000012
:106640009C760000002310B5040003604360836063
:1066500081814366C281036143618361190008221D
:106660005C30FFF7A0FA054B24626362044BA3621F
:10667000044BE362044B236310BDC04679690000FC
:10668000A1690000D9690000056A000010B502493F
:1066900000F08CF810BDC046ED65000070B56825AF
:1066A0004A1E55430E0029007431FFF715FB041EE6
:1066B00008D000212A00016046600C30A0606832DA
:1066C000FFF771FA200070BD836913B50400002B39
:1066D00028D18364C3640365134B144A1B68826228
:1066E0000193984201D101238361200000F020F83A
:1066F0006060200000F01CF8A060200000F018F896
:106700000022E06004216068FFF79CFF012209215C
:10671000A068FFF797FF02221221E068FFF792FFBF
:106720000123A36113BDC046647600008D6600009E
:10673000F8B51C4B07001E68B369002B02D130006E
:10674000FFF7C2FF4836B4687368013B04D533686D
:10675000002B07D03668F6E70C22A55E002D0DD081
:106760006834F2E704213800FFF798FF3060002812
:10677000F0D10C2304003B602000F8BD20000A4B40
:10678000656625606560A560E36025616561A5615A
:10679000082229005C30FFF706FA6563A563A5644B
:1067A000E564E9E7647600000100FFFFF7B5040047
:1067B0000700002601914834002C01D13000FEBDB5
:1067C0006368A5680093009B013B009301D5246892
:1067D000F2E7AB89012B08D90E22AB5E013304D05E
:1067E00029003800019B984706436835EBE7000015
:1067F00070B50E001D000E23C95E96B0140000296E
:1068000007DA00232B60B3891B0611D48023DB0039
:106810000FE06A4600F022F90028F2DBF022019B2B
:1068200012021340054A9B185A4253412B60EDE770
:1068300040230020236016B070BDC04600E0FFFF7B
:10684000F7B502268B8905000C00334206D02300E1
:1068500047332360236101236361F7BD01AB6A46BF
:10686000FFF7C6FF009907002800FFF735FA002858
:1068700008D10C22A35E9A05EFD4032293431E4352
:10688000A681E4E70F4BAB628023A289206013430B
:10689000A381009B20616361019B002B0DD00E231F
:1068A000E15E280000F0ECF8002806D00322A3895E
:1068B00093431A0001231343A381A0893843A08185
:1068C000CBE7C0468D660000C9B28218904201D164
:1068D0000020704703788B42FBD00130F6E7704709
:1068E000704770B504000D001F2904D916230360FA
:1068F0000120404270BD436C002B04D08A009B18DD
:106900001A68002A08D1200000F032F82A0001009D
:10691000200000F01BF8EDE70020012AEAD0511C0E
:1069200003D1162301302360E4E7002428001C6013
:1069300090472000DEE7000010B5034B0100186807
:10694000FFF7CFFF10BDC04620000020002370B528
:10695000064C050008001100236000F0EBF8431C12
:1069600003D12368002B00D02B6070BD340E0020B3
:1069700010B500F0CFF810BD70B50C000E25495FC2
:1069800000F0A4F8002803DB636D1B18636570BD7D
:10699000A389024A1340A381F9E7C046FFEFFFFF36
:1069A000F8B51F008B8905000C001600DB0505D526
:1069B0000E23C95E0022022300F074F8A389054A61
:1069C00028001340A38132000E23E15E3B0000F05B
:1069D0001FF8F8BDFFEFFFFF70B50C000E25495FF3
:1069E00000F060F8A389421C03D1054A1340A3813B
:1069F00070BD802252011343A3816065F8E7C04651
:106A0000FFEFFFFF10B50E23C95E00F015F810BDB3
:106A100070B50500080011000022064C22601A0023
:106A200000F0AEF8431C03D12368002B00D02B608C
:106A300070BDC046340E0020002370B5064C050022
:106A40000800236000F056F8431C03D12368002B94
:106A500000D02B6070BDC046340E0020002370B5FE
:106A6000064C050008001100236000F04BF8431CA1
:106A700003D12368002B00D02B6070BD340E0020A2
:106A8000002370B5064C05000800236000F04AF8AA
:106A9000431C03D12368002B00D02B6070BDC0467F
:106AA000340E002070B50500080011000022064CCD
:106AB00022601A0000F046F8431C03D12368002B23
:106AC00000D02B6070BDC046340E002070B50500AC
:106AD000080011000022064C22601A0000F03AF86B
:106AE000431C03D12368002B00D02B6070BDC0462F
:106AF000340E002058220120014B40421A6070479A
:106B0000340E002058220120014B40421A60704789
:106B1000340E002058220120014B40421A60704779
:106B2000340E00205822024B00201A607047C046E5
:106B3000340E002058220120014B40421A60704759
:106B4000340E002058220120014B40421A60704749
:106B5000340E002058220120014B40421A60704739
:106B6000340E0020044A1368002B00D1034B181880
:106B7000106018007047C046300E0020380E00200C
:106B800058220120014B40421A607047340E002009
:106B9000FEE7C046F8B5C046F8BC08BC9E46704744
:106BA000F8B5C046F8BC08BC9E467047556E6B6E83
:106BB0006F776E004F4E004F464600000000000009
:106BC0000200000004000000060000000E000000AB
:106BD0001E0000001400000001000000030000007F
:106BE00005000000070000000F0000001F0000006B
:106BF00015000000705F736572636F6D20213D208A
:106C00004E554C4C00433A5C55736572735C6C6F27
:106C10007761695C417070446174615C4C6F636161
:106C20006C5C41726475696E6F31355C7061636B69
:106C3000616765735C4C6F6E67616E5F4D305C6859
:106C4000617264776172655C73616D645C312E3072
:106C50002E315C6C69627261726965735C53504974
:106C60005C5350492E63707000535049436C6173FC
:106C7000733A3A535049436C6173732853455243F6
:106C80004F4D2A2C2075696E74385F742C207569FD
:106C90006E74385F742C2075696E74385F742C20A4
:106CA000536572636F6D53706954585061642C2042
:106CB000536572636F6D5258506164290000000083
:106CC00024499200264992003449920036499200A4
:106CD000A4499200A6499200B4499200B649920094
:106CE000244D9200264D9200344D9200364D920074
:106CF000A44D9200A64D9200B44D9200B64D920064
:106D000024699200266992003469920036699200E3
:106D1000A4699200A6699200B4699200B6699200D3
:106D2000246D9200266D9200346D9200366D9200B3
:106D3000A46D9200A66D9200B46D9200B66D9200A3
:106D4000244993002649930034499300364993001F
:106D5000A4499300A6499300B4499300B64993000F
:106D6000244D9300264D9300344D9300364D9300EF
:106D7000A44D9300A64D9300B44D9300B64D9300DF
:106D8000246993002669930034699300366993005F
:106D9000A4699300A6699300B4699300B66993004F
:106DA000246D9300266D9300346D9300366D93002F
:106DB000A46D9300A66D9300B46D9300B66D93001F
:106DC00024499A0026499A0034499A0036499A0083
:106DD000A4499A00A6499A00B4499A00B6499A0073
:106DE000244D9A00264D9A00344D9A00364D9A0053
:106DF000A44D9A00A64D9A00B44D9A00B64D9A0043
:106E000024699A0026699A0034699A0036699A00C2
:106E1000A4699A00A6699A00B4699A00B6699A00B2
:106E2000246D9A00266D9A00346D9A00366D9A0092
:106E3000A46D9A00A66D9A00B46D9A00B66D9A0082
:106E400024499B0026499B0034499B0036499B00FE
:106E5000A4499B00A6499B00B4499B00B6499B00EE
:106E6000244D9B00264D9B00344D9B00364D9B00CE
:106E7000A44D9B00A64D9B00B44D9B00B64D9B00BE
:106E800024699B0026699B0034699B0036699B003E
:106E9000A4699B00A6699B00B4699B00B6699B002E
:106EA000246D9B00266D9B00346D9B00366D9B000E
:106EB000A46D9B00A66D9B00B46D9B00B66D9B00FE
:106EC0002449D2002649D2003449D2003649D200A2
:106ED000A449D200A649D200B449D200B649D20092
:106EE000244DD200264DD200344DD200364DD20072
:106EF000A44DD200A64DD200B44DD200B64DD20062
:106F00002469D2002669D2003469D2003669D200E1
:106F1000A469D200A669D200B469D200B669D200D1
:106F2000246DD200266DD200346DD200366DD200B1
:106F3000A46DD200A66DD200B46DD200B66DD200A1
:106F40002449D3002649D3003449D3003649D3001D
:106F5000A449D300A649D300B449D300B649D3000D
:106F6000244DD300264DD300344DD300364DD300ED
:106F7000A44DD300A64DD300B44DD300B64DD300DD
:106F80002469D3002669D3003469D3003669D3005D
:106F9000A469D300A669D300B469D300B669D3004D
:106FA000246DD300266DD300346DD300366DD3002D
:106FB000A46DD300A66DD300B46DD300B66DD3001D
:106FC0002449DA002649DA003449DA003649DA0081
:106FD000A449DA00A649DA00B449DA00B649DA0071
:106FE000244DDA00264DDA00344DDA00364DDA0051
:106FF000A44DDA00A64DDA00B44DDA00B64DDA0041
:107000002469DA002669DA003469DA003669DA00C0
:10701000A469DA00A669DA00B469DA00B669DA00B0
:10702000246DDA00266DDA00346DDA00366DDA0090
:10703000A46DDA00A66DDA00B46DDA00B66DDA0080
:107040002449DB002649DB003449DB003649DB00FC
:10705000A449DB00A649DB00B449DB00B649DB00EC
:10706000244DDB00264DDB00344DDB00364DDB00CC
:10707000A44DDB00A64DDB00B44DDB00B64DDB00BC
:107080002469DB002669DB003469DB003669DB003C
:10709000A469DB00A669DB00B469DB00B669DB002C
:1070A000246DDB00266DDB00346DDB00366DDB000C
:1070B000A46DDB00A66DDB00B46DDB00B66DDB00FC
:1070C000E8070020000C0042040C0202EC0700203C
:1070D0000010004206050202F407002000180042DA
:1070E0000A170103000000000B000000020000006E
:1070F00004000000FF00FFFFFFFF0B000000000086
:107100000A0000000200000004000000FF00FFFF72
:10711000FFFF0A00000000000E0000000800000051
:1071200004000000FF00FFFFFFFF0E000000000052
:1071300009000000040000001C000000FF00010026
:107140000100090000000000080000000400000029
:107150001C000000FF000000000010000000000004
:107160000F000000040000001C000000FF000103ED
:1071700001030F00000000001400000005000000E3
:107180002C000000FF0002000200040000000000CC
:1071900015000000050000002C000000FF000300A7
:1071A00003000500000000000600000004000000CD
:1071B0001C000000FF0000010001060000000000AC
:1071C00007000000040000001C000000FF00010197
:1071D0000101070000000000120000000400000090
:1071E0001C000000FF00000300030200000000007C
:1071F00010000000040000001C000000FF0000025E
:107200000002000000000000130000000500000064
:107210002C000000FF00030003000300000000003A
:1072200011000000040000001C000000FF0001022B
:107230000102010000000000020000000100000047
:10724000020000000000FFFFFFFF0200010000003D
:107250000800000001000000180000000200000407
:107260000004080001000000090000000100000007
:1072700018000000030001040104090000000000E0
:107280000400000001000000000000000400FFFFF7
:10729000FFFF0400000000000500000001000000E6
:1072A000000000000500FFFFFFFF050001000000D7
:1072B0000200000001000000000000000A00FFFFC3
:1072C000FFFF0200000000001600000002000000A6
:1072D00004000000FF00FFFFFFFF060000000000A9
:1072E000170000000200000004000000FF00FFFF84
:1072F000FFFF0700000000000C000000030000007A
:1073000004000000FF00FFFFFFFF0C000100000071
:107310000A0000000300000004000000FF00FFFF5F
:10732000FFFF0A00010000000B0000000300000046
:1073300004000000FF00FFFFFFFF0B000100000042
:10734000030000000B00000004000000FF00FFFF2E
:10735000FFFFFF00000000001B0000000B0000000A
:1073600004000000FF00FFFFFFFFFF00000000001F
:107370001C0000000600000000000000FF00FFFFEE
:10738000FFFFFF00000000001800000006000000E2
:1073900000000000FF00FFFFFFFFFF0000000000F3
:1073A000190000000600000000000000FF00FFFFC1
:1073B000FFFFFF00010000001600000003000000B6
:1073C00000000000FF00FFFFFFFFFF0001000000C2
:1073D000170000000300000000000000FF00FFFF96
:1073E000FFFFFF0000000000160000000200000088
:1073F00000000000FF00FFFFFFFFFF000000000093
:10740000170000000200000000000000FF00FFFF66
:10741000FFFFFF000000000013000000020000005A
:1074200000000000FF00FFFFFFFFFF000000000062
:10743000100000000200000000000000FF00FFFF3D
:10744000FFFFFF000000000012000000020000002B
:1074500000000000FF00FFFFFFFFFF000000000032
:10746000110000000200000000000000FF00FFFF0C
:10747000FFFFFF00000000000D00000004000000FE
:107480000C000000FF000100FFFF0D0000000000E5
:1074900015000000050000000C000000FF000300C4
:1074A000FFFFFF00000000000600000004000000D5
:1074B0000C000000FF000001FFFFFF0000000000C3
:1074C00007000000040000000C000000FF000101A4
:1074D000FFFFFF00000000000300000001000000AB
:1074E00002000000FF00FFFFFFFFFF0000000000A0
:1074F0000200000001000000020000001400FFFF75
:10750000FFFF0200000000001E0000000400000059
:1075100006000000FF00FFFF00010A00000000005D
:107520001F0000000400000006000000FF00FFFF35
:1075300001010B000000000000000000853A00007F
:107540000D0A00000000000000000000FB3F0000EA
:1075500031420000F73F000015420000F5410000F5
:107560006D42000051420000234200001140000023
:10757000773F00003D410000A13F0000F53F0000C3
:10758000F0FFFFFF00000000E54100002D4100007A
:107590009342000091420000E53F0000000000001F
:1075A00000000000F1450000AD48000095480000D3
:1075B0007348000055440000574400004545000052
:1075C000537175616D612045746865726E657400F4
:1075D0000403090441726475696E6F204C4C4300CA
:1075E00012010002EF02014041234D80000101021F
:1075F0000301000000000000000000000958000026
:10760000F53A00002F570000EB5600000557000028
:10761000BD580000CD540000BD540000515500007D
:10762000E7540000B95400002C2066756E6374693D
:107630006F6E3A2000617373657274696F6E2022F9
:10764000257322206661696C65643A2066696C6501
:1076500020222573222C206C696E652025642573F9
:1076600025730A0024000020232D302B2000686C95
:107670004C00656667454647003031323334353655
:10768000373839414243444546003031323334358E
:1076900036373839616263646566000000000000B7
:1076A00000000000000000000000000000000000DA
:1076B00000000000000000000000000000000000CA
:1076C00000000000000000000000000000000000BA
:1076D00000000000000000000000000000000000AA
:1076E000000000000000000000000000000000009A
:1076F000000000000000000000000000000000008A
:10770000000000000A00000040420F00FFFFFFFFE2
:10771000FFFFFFFF00C2010000000800FFFFFFFFA6
:107720002400002000000000BC760000DC76000091
:107730009C76000000000000000000000000000037
:107740000000000000000000000000000000000039
:107750000000000000000000000000000000000029
:107760000000000000000000000000000000000019
:107770000000000000000000000000000000000009
:1077800000000000DD200000B9220000712400008C
:10779000B1240000C92400000525000025250000B3
:1077A0003D2500005525000091250000D92A000044
:1077B000193400001D430000A9540000B52000004A
:04000003000034C500
:00000001FF
